:100000000C9462000C948A000C948A000C948A0070
:100010000C948A000C948A000C948A000C948A0038
:100020000C948A000C948A000C948A000C94CE05DF
:100030000C948A000C948A000C948A000C948A0018
:100040000C942C050C948A000C949C050C94760559
:100050000C948A000C948A000C948A000C948A00F8
:100060000C948A000C948A000000000024002700F1
:100070002A0000000000250028002B0000000000DE
:1000800023002600290004040404040404040202DA
:100090000202020203030303030301020408102007
:1000A0004080010204081020010204081020000012
:1000B0000008000201000003040700000000000027
:1000C0000000360711241FBECFEFD8E0DEBFCDBF42
:1000D00012E0A0E0B1E0ECE5FCE102C005900D9279
:1000E000AC30B107D9F723E0ACE0B2E001C01D921B
:1000F000AC33B207E1F710E0C2E6D0E004C02197CC
:10010000FE010E94000DC136D107C9F70E943208D6
:100110000C942C0E0C940000833081F028F4813074
:1001200099F08230A1F008958730A9F08830B9F0B5
:100130008430D1F4809180008F7D03C08091800055
:100140008F7780938000089584B58F7702C084B53F
:100150008F7D84BD08958091B0008F7703C080911A
:10016000B0008F7D8093B0000895CF93DF93282F48
:1001700030E0F901E255FF4F8491F901E656FF4F57
:10018000D491F901EA57FF4FC491CC2391F081112A
:100190000E948C00EC2FF0E0EE0FFF1FE458FF4FA1
:1001A000A591B491EC91ED2381E090E021F480E001
:1001B00002C080E090E0DF91CF9108951F93CF932C
:1001C000DF93282F30E0F901E255FF4F8491F901C8
:1001D000E656FF4FD491F901EA57FF4FC491CC2363
:1001E000C1F0162F81110E948C00EC2FF0E0EE0F71
:1001F000FF1FEE58FF4FA591B4919FB7F8941111CE
:1002000004C08C91D095D82302C0EC91DE2BDC93F6
:100210009FBFDF91CF911F910895CF93DF9390E01F
:10022000FC01E656FF4F2491FC01EA57FF4F8491F1
:10023000882361F190E0880F991FFC01E859FF4F76
:10024000C591D491FC01EE58FF4FA591B491611175
:1002500009C09FB7F8948881209582238883EC9108
:100260002E230BC0623061F49FB7F8948881322F3F
:10027000309583238883EC912E2B2C939FBF06C04F
:100280008FB7F894E8812E2B28838FBFDF91CF9111
:1002900008953FB7F8948091220290912302A09193
:1002A0002402B091250226B5A89B05C02F3F19F066
:1002B0000196A11DB11D3FBFBA2FA92F982F8827E6
:1002C000820F911DA11DB11DBC01CD0142E0660F41
:1002D000771F881F991F4A95D1F708958F929F9293
:1002E000AF92BF92CF92DF92EF92FF926B017C01AF
:1002F0000E9449014B015C01C114D104E104F104E5
:10030000F1F00E944901DC01CB0188199909AA0981
:10031000BB09883E9340A105B10570F321E0C21AE4
:10032000D108E108F10888EE880E83E0981EA11C30
:10033000B11CC114D104E104F10419F7DDCFFF9021
:10034000EF90DF90CF90BF90AF909F908F900895E7
:100350002FB7F89460911E0270911F0280912002C5
:10036000909121022FBF0895CF92DF92EF92FF92DA
:100370000F931F93CF93DF936C017A018B01C0E041
:10038000D0E0CE15DF0581F0D8016D918D01D60149
:10039000ED91FC910190F081E02DC6010995892B2A
:1003A00011F02196EECF7E01C701DF91CF911F9111
:1003B0000F91FF90EF90DF90CF900895089580E027
:1003C00090E00895FC01538D448D252F30E0842F5B
:1003D00090E0821B930B541710F0CF96089501976D
:1003E0000895FC01918D828D981761F0828DDF0157
:1003F000A80FB11D5D968C91928D9F5F9F73928F18
:1004000090E008958FEF9FEF0895FC01918D828D0C
:10041000981731F0828DE80FF11D858D90E00895D9
:100420008FEF9FEF08950F931F930E94A801609391
:100430002E0270932F02809330029093310286E255
:1004400092E00E94050297FF1FC00E94A801009140
:100450002E0210912F022091300230913102DC01E6
:10046000CB01801B910BA20BB30B00912A021091C0
:100470002B0220912C0230912D0280179107A207A8
:10048000B307E8F28FEF9FEF1F910F910895CF927E
:10049000DF92EF92FF92CF930E941302FC0197FD2F
:1004A0000BC08D32910561F0C0970A9748F086E243
:1004B00092E00E94F101F0CF60E070E0CB0140C01B
:1004C000C12CD12C7601C0E0E130F10501F1ED3213
:1004D000F105E1F0CF01C0970A97C8F4AAE0B0E0B7
:1004E000A70196010E947A0C6F01FF0FEE08FF082A
:1004F000DC01CB018C0D9D1DAE1DBF1D6C017D016E
:1005000020E3C21AD108E108F10801C0C1E086E287
:1005100092E00E94F1010E941302FC01C0970A9729
:1005200098F2E130F10581F2CC2341F0662777277C
:10053000CB016C197D098E099F0902C0C701B60164
:10054000CF91FF90EF90DF90CF900895FC01918DB7
:10055000228D892F90E0805C9F4F821B91098F73C1
:100560009927089586E292E00E94A60221E0892B55
:1005700009F420E0822F0895FC01848DDF01A80F8B
:10058000B11DA35ABF4F2C91848D90E001968F73BB
:100590009927848FA689B7892C93A089B1898C91DA
:1005A000837080648C93938D848D981306C0028829
:1005B000F389E02D80818F7D80830895EF92FF92F3
:1005C0000F931F93CF93DF93EC0181E0888F9B8D76
:1005D0008C8D981305C0E889F989808185FD26C036
:1005E000F62E0B8D10E00F5F1F4F0F731127E02EBB
:1005F0008C8DE8120CC00FB607FCFACFE889F98998
:10060000808185FFF5CFCE010E94BC02F1CF8B8D9A
:10061000FE01E80FF11DE35AFF4FF0829FB7F894F7
:100620000B8FEA89FB89808180620AC09FB7F894AA
:10063000EE89FF896083E889F9898081837080640D
:1006400080839FBF81E090E0DF91CF911F910F9158
:10065000FF90EF900895CF93DF93EC01888D88236E
:10066000C9F0EA89FB89808185FD05C0A889B9891F
:100670008C9186FD0FC00FB607FCF5CF808185FFFA
:10068000F2CFA889B9898C9185FFEDCFCE010E9468
:10069000BC02E7CFDF91CF91089580E090E0892BF5
:1006A00029F00E94B20281110C9400000895862F57
:1006B000642F0C940D01FC0181850E94B50021E09E
:1006C000892B09F420E0822F08956F927F928F92F8
:1006D0009F92AF92BF92CF92DF92EF92FF920F93D1
:1006E0001F93CF93DF93EC016AE070E080E090E02D
:1006F0000E946E0198E0E92EF12C00E010E02FE05E
:10070000622E712C33E2C32ED12C60E088810E94CE
:10071000DE00C3010197F1F761E088810E94DE00ED
:10072000C6010197F1F760E088810E94DE008A81AE
:100730000E94B500892BD9F30E9449014B015C014D
:100740008A810E94B5000197D9F30E944901681976
:10075000790977FF02C06F5F7F4F75956795072E08
:10076000000C880B990B0E94620B27EE3BEF49EAC5
:100770005EE30E949D0B0E94BE0CFB012C813D811B
:100780002F3F4FEF340729F44E815F814F3F5F4F7A
:1007900059F02E173F072CF42E813F81E217F30703
:1007A0001CF08FEF9FEF01C0CB01080F191F6AE00B
:1007B00070E080E090E00E946E0141E0E41AF108F0
:1007C00009F0A3CF81E0083213400CF480E0DF9100
:1007D000CF911F910F91FF90EF90DF90CF90BF903E
:1007E000AF909F908F907F906F900895BF92CF921F
:1007F000DF92EF92FF920F931F93CF93DF938C01C1
:10080000FC01B080F8E0BF9EE0011124FE01ED5331
:10081000FD4F74836383603282E078070CF03FC041
:10082000CB01653B710514F084EB90E0F801218168
:10083000A8E8B0E06D01C21AD10827FDD394D60113
:10084000AA0FBB1FAA0FBB1F6D01BB0FEE08FF084D
:10085000428128E532E0241B310947FD3395220F00
:10086000331F220F331FA901330F660B770B9A0139
:10087000AB012C193D094E095F09DC0197FF02C04D
:10088000A0E0B0E00E94850C24EB30E040E050E0B6
:100890000E945B0CC20ED31EE41EF51EB601FBE0E7
:1008A000FB1550F1F801218188E890E0821B910945
:1008B00027FD9395880F991F880F991F681779074F
:1008C0007CF0228188E592E0821B910927FD9395B7
:1008D000880F991F880F991F681779070CF4CB01AF
:1008E0002FB7F894CD53DD4F0297880F991F9E8341
:1008F0008D8384E18F832FBFDF91CF911F910F9163
:10090000FF90EF90DF90CF90BF900895009769F02F
:10091000FC0101900020E9F73197AF01481B590B0A
:10092000BC0186E292E00C94B40180E090E008956E
:10093000CF93DF930E948604EC018CE291E00E9449
:1009400086048C0F9D1FDF91CF9108958F929F9207
:10095000AF92BF920F931F93CF93DF93CDB7DEB7C4
:10096000A1970FB6F894DEBF0FBECDBF19A24230DB
:1009700008F44AE08E010F5D1F4F842E912CA12CAC
:10098000B12CA50194010E948D0CE62FB901CA017A
:1009900001501109EA3014F4E05D01C0E95CD801AE
:1009A000EC93232B242B252B61F7C8010E9486048E
:1009B000A1960FB6F894DEBF0FBECDBFDF91CF91E9
:1009C0001F910F91BF90AF909F908F900895CF92FD
:1009D000DF92EF92FF92CF93DF936B017C016DE288
:1009E00086E292E00E94DE02EC0166277727CB01C7
:1009F0006C197D098E099F094AE00E94A6048C0F9C
:100A00009D1FDF91CF91FF90EF90DF90CF900895E1
:100A1000CF93DF93BC01990F880B990B97FF03C00D
:100A20000E94E70403C04AE00E94A604EC018CE2A5
:100A300091E00E9486048C0F9D1FDF91CF91089555
:100A4000BC01990F880B990B97FD0C94E7044AE0C1
:100A50000C94A6040E94270E1F920F920FB60F92BD
:100A600011242F933F938F939F93AF93BF938091C4
:100A70001E0290911F02A0912002B091210230919C
:100A80001D0223E0230F2D3720F40196A11DB11D77
:100A900005C026E8230F0296A11DB11D20931D025B
:100AA00080931E0290931F02A0932002B093210214
:100AB0008091220290912302A0912402B0912502FC
:100AC0000196A11DB11D8093220290932302A09351
:100AD0002402B0932502BF91AF919F918F913F91D6
:100AE0002F910F900FBE0F901F9018951F920F928D
:100AF0000FB60F9211242F933F934F935F936F93F1
:100B00007F938F939F93AF93BF93EF93FF9386E26F
:100B100092E00E94BC02FF91EF91BF91AF919F9133
:100B20008F917F916F915F914F913F912F910F9096
:100B30000FBE0F901F9018951F920F920FB60F9235
:100B400011242F938F939F93EF93FF93E09136029D
:100B5000F09137028081E0913C02F0913D0282FDEC
:100B600012C0908180913F028F5F8F73209140026D
:100B7000821751F0E0913F02F0E0EA5DFD4F958F62
:100B800080933F0201C08081FF91EF919F918F91EF
:100B90002F910F900FBE0F901F9018951F920F92DC
:100BA0000FB60F9211242F933F934F935F936F9340
:100BB0007F938F939F93AF93BF93EF93FF93809116
:100BC0000C0287FF05C0109285001092840016C0A9
:100BD00020910C02022E000C330B8091230390E035
:100BE000281739075CF4E0910C0228E0E202F001DA
:100BF0001124ED53FD4F808186FD15C080910C02BC
:100C00008F5F80930C0220910C02022E000C330B9C
:100C10008091230390E0281739079CF480910C02FF
:100C20008C3034F10EC0E0910C0228E0E202F001B9
:100C30001124ED53FD4F808160E08F730E94DE0030
:100C4000DDCF809184009091850084349C4918F414
:100C500080E49CE905C08091840090918500049611
:100C600090938900809388008FEF80930C02EDC0F1
:100C7000E0910C0288E0E802F0011124ED53FD4FF1
:100C80008781882309F4B5C0A0910C02E0910C0281
:100C900088E0A802D0011124AD53BD4F28E0E20244
:100CA000F0011124ED53FD4F15962D913C911697AF
:100CB00081819281A0910C02E0910C02821793072E
:100CC00008F04BC088E0E802F0011124ED53FD4F1D
:100CD00028E0A202D0011124AD53BD4F17962C91EC
:100CE00081819281820F911D92838183A0910C0258
:100CF000E0910C0288E0A802D0011124AD53BD4F51
:100D000028E0E202F0011124ED53FD4F15962D91DC
:100D10003C911697818192818217930708F469C0EC
:100D2000E0910C02A0910C0288E0E802F00111248D
:100D3000ED53FD4F28E0A202D0011124AD53BD4F69
:100D400015968D919C91169792838183E0910C0268
:100D500088E0E802F001112449C028E0E202F00135
:100D60001124ED53FD4F88E0A802D0011124AD53AA
:100D7000BD4F17962C9181819281821B910992839C
:100D80008183A0910C02E0910C0228E0A202D00124
:100D90001124AD53BD4F88E0E802F0011124ED535A
:100DA000FD4F15962D913C911697818192812817C0
:100DB0003907F8F0E0910C02A0910C0228E0E20261
:100DC000F0011124ED53FD4F88E0A802D001112459
:100DD000AD53BD4F15968D919C911697928381834B
:100DE000E0910C0228E0E202F0011124ED53FD4FE6
:100DF00017822091840030918500E0910C0288E0F8
:100E0000E802F0011124ED53FD4F81819281820FA0
:100E1000931F9093890080938800E0910C0228E052
:100E2000E202F0011124ED53FD4F808186FF0DC0D9
:100E3000E0910C0288E0E802F0011124ED53FD4F2F
:100E4000808161E08F730E94DE00FF91EF91BF917E
:100E5000AF919F918F917F916F915F914F913F9152
:100E60002F910F900FBE0F901F901895EF92FF9249
:100E70000F931F93CF93DF931092290210922802B1
:100E800088EE93E0A0E0B0E080932A0290932B02DA
:100E9000A0932C02B0932D0286E191E0909327025B
:100EA0008093260285EC90E0909333028093320287
:100EB00084EC90E0909335028093340280EC90E0D3
:100EC000909337028093360281EC90E09093390240
:100ED0008093380282EC90E090933B0280933A0238
:100EE00086EC90E090933D0280933C0210923F028A
:100EF0001092400210924102109242028CE190E066
:100F00000E94060DFC0128E231E031832083128229
:100F10001382148215828AE090E09783868310867C
:100F2000118637872687108A118A128A138A958B31
:100F3000848B168A178AF0933703E09336038CE08C
:100F400090E00E94060DFC01909123039C3018F064
:100F50008FEF808313C0908388E0989FD001112485
:100F6000AD53BD4F28EB3BE012963C932E93119767
:100F7000158224E031E0348323839F5F9C30A0F40A
:100F8000968388E0989FD0011124AD53BD4F28EB84
:100F90003BE012963C932E931197138624E031E0A8
:100FA000328721879F5F02C08FEF86839093230350
:100FB000F0933503E0933403CFEFDFEFD0932903B1
:100FC000C0932803D0932B03C0932A0361E082E0EF
:100FD0000E940D0160E083E00E940D0182E090E03C
:100FE000909325038093240383E090E0909327035C
:100FF0008093260384E1E82EF12CF0922903E092FD
:10100000280300EA1FE010932B0300932A03D093D8
:101010003103C0933003D0933303C093320361E0B4
:1010200088E00E940D0160E089E00E940D0188E0E7
:1010300090E090932D0380932C0389E090E09093AF
:101040002F0380932E03F0923103E092300310932C
:10105000330300933203DF91CF911F910F91FF90E3
:10106000EF900895CF93DF9300D000D000D0CDB79C
:10107000DEB7789484B5826084BD84B5816084BD18
:1010800085B5826085BD85B5816085BD80916E0026
:10109000816080936E001092810080918100826057
:1010A0008093810080918100816080938100809194
:1010B00080008160809380008091B1008460809383
:1010C000B1008091B00081608093B00080917A007F
:1010D000846080937A0080917A00826080937A00A5
:1010E00080917A00816080937A0080917A00806894
:1010F00080937A001092C100E0913602F09137029D
:1011000082E08083E0913202F09133021082E0911C
:101110003402F091350280E1808310923E02E0912A
:101120003A02F0913B0286E08083E0913802F09130
:101130003902808180618083E0913802F091390228
:10114000808188608083E0913802F091390280814B
:1011500080688083E0913802F091390280818F7D30
:10116000808362E084E00E940D0161E084E00E94DF
:10117000DE0062E085E00E940D0161E085E00E94F2
:10118000DE00B5E1EB2EB2E0FB2E19E1C12E12E03C
:10119000D12E0BE0902E00E010E0AA24A394B12CF5
:1011A0009CE0892E22E0722ED601AD92BD926D0197
:1011B000F701A192B1927F018091340390913503A0
:1011C000800F911F9A838983DC018C918C3008F009
:1011D00051C061E0892D0E940D01E981FA81808171
:1011E00028E0829FF0011124ED53FD4F9081907C07
:1011F000292D2F73922B9083A981BA8111961C926D
:10120000119712961C92682D0E94F40CBCE08B9FE3
:10121000A001112420E030E0FA01E20FF31FA3E067
:10122000EE0FFF1FAA95E1F7ED53FD4F908196FD5C
:1012300015C02F5F3F4F2C30310571F781110EC063
:1012400010928000709281001092850010928400AC
:10125000B19A80916F00826080936F00A981BA81FA
:10126000EC91B8E0EB9FF0011124ED53FD4F80812C
:10127000806480830A5F1F4F9394EDE09E1294CFA9
:101280006EE0E62E61E0F62E00E010E079E1C72E78
:10129000D12CD701BD907D01E0913603F091370349
:1012A000E00FF11FFA83E9836B2D70E00190F0816C
:1012B000E02D0280F381E02D42E050E089819A81A7
:1012C0000995A981BA811996BC92199718961C9212
:1012D0001897ED91FC9111970190F081E02DCD01CF
:1012E0000995882329F0E981FA81808583608087C8
:1012F0000E94A801A981BA8112966D937D938D9366
:101300009C931597E0913603F0913703E00FF11F9E
:10131000D782C682025F1F4F0C31110509F0B9CF89
:101320008FE291E00E94980486E292E00E94A60279
:10133000892B09F4A6C081E491E00E9498040E94E0
:10134000470270930101609300010E94470270936D
:1013500003016093020186E292E00E94F1010A9784
:1013600081F480910001909101010E94200583E5A4
:1013700091E00E94860480910201909103010E94F5
:10138000080568EE73E080E090E00E946E0185E55C
:1013900091E00E94980488E691E00E948604809182
:1013A0000001909101010E94080581E791E00E94EF
:1013B000860480910201909103010E9408058091AA
:1013C00000019091010182309105C9F183309105AE
:1013D00009F470C0019709F087C0E0910201F09113
:1013E0000301EE0FFF1FE75EFD4F808191810197A2
:1013F00009F58AE791E00E949804E0910201F091DA
:101400000301EE0FFF1FE75EFD4F82E090E0918346
:1014100080838FE991E00E948604E0910201F091BF
:101420000301EE0FFF1FE75EFD4F808191810E9457
:10143000080521C08CEA91E00E9498041CC08FED41
:1014400091E00E9498048091190290911A020E94E2
:10145000200583E591E00E94860480911B02909113
:101460001C020E94200583E591E00E9486048DE223
:1014700091E00E94860468EE73E080E090E00E94B4
:101480006E010DE012E0A0E1B1E0BA83A98394E21D
:10149000C92E93E0D92EE5E1F2E0FE83ED8329E148
:1014A000E22E22E0F22E1C821B82A12CB12C212CD8
:1014B000312C1FC085EE91E00E949804E09102015A
:1014C000F0910301EE0FFF1FE75EFD4F80819181D8
:1014D000059729F481E090E091838083CCCFA5E04B
:1014E000B0E0B183A083C7CF8AEE91E00E94980458
:1014F000C8CFF70180809180F2E08F16910431F11E
:101500002CF481E08816910459F0A9C093E0891663
:101510009104B9F1A4E08A16910409F446C09FC071
:10152000ED81FE8180819181049709F098C08091BE
:1015300034039091350360E070E08A0D9B1D0E949A
:10154000F603AD81BE818D929C9289C0C6010E9436
:101550006503882329F082EF91E00E9498047FC000
:101560008CEF91E00E948604C1010E94200581E079
:1015700092E00E94980483E090E0F70191838083D9
:101580006EC060E0A981BA818C910E94DE00E0917A
:101590003603F09137038B819C81E80FF91F80851A
:1015A00080FD5DC082FF5BC085C0AD81BE818D9135
:1015B0009C918430910591F0019709F050C0809181
:1015C0003403909135036AE570E08A0D9B1D0E94FB
:1015D000F603ED81FE819182808241C0C6010E94A6
:1015E00065038823E1F1D8014D905D906D907C906A
:1015F000411451046104710441F40E94A801F801EE
:1016000060837183828393832AC00E94A801DC01D6
:10161000CB0184199509A609B70989389341A10519
:10162000B105E8F0C6010E946503882391F0E1E06E
:10163000F0E0AD81BE81ED93FC9361E0A981BA81B8
:101640008C910E94DE00F8011082118212821382B6
:1016500006C0D8011D921D921D921C92139768EC32
:1016600070E080E090E00E946E01BFEF2B1A3B0A11
:10167000E2E0EE0EF11CF6E0AF0EB11C8D819E8112
:1016800002969E838D830C5F1F4FA981BA811196AC
:10169000BA83A983B8E0CB0ED11CEB81FC813E96C6
:1016A000FC83EB83F2E02F16310409F022CF0E9475
:1016B0004D0336CEE4E0F0E0D701ED93FC93CFCFBD
:1016C000E89409C097FB3EF49095809570956195DC
:1016D0007F4F8F4F9F4F9923A9F0F92F96E9BB2792
:1016E0009395F695879577956795B795F111F8CF0E
:1016F000FAF4BB0F11F460FF1BC06F5F7F4F8F4F79
:101700009F4F16C0882311F096E911C0772321F06E
:101710009EE8872F762F05C0662371F096E8862F06
:1017200070E060E02AF09A95660F771F881FDAF75D
:10173000880F9695879597F908950E94B00B0C94A1
:10174000210C0E94130C38F00E941A0C20F09523F3
:1017500011F00C940A0C0C94100C11240C94550CE0
:101760000E94320C70F3959FC1F3950F50E0551F06
:10177000629FF001729FBB27F00DB11D639FAA27E6
:10178000F00DB11DAA1F649F6627B00DA11D661F35
:10179000829F2227B00DA11D621F739FB00DA11D56
:1017A000621F839FA00D611D221F749F3327A00D10
:1017B000611D231F849F600D211D822F762F6A2FAC
:1017C00011249F5750409AF0F1F088234AF0EE0F11
:1017D000FF1FBB1F661F771F881F91505040A9F73E
:1017E0009E3F510580F00C940A0C0C94550C5F3F01
:1017F000E4F3983ED4F3869577956795B795F7957A
:10180000E7959F5FC1F7FE2B880F911D96958795F1
:1018100097F9089597F99F6780E870E060E0089570
:101820009FEF80EC089500240A94161617061806F8
:101830000906089500240A941216130614060506D4
:101840000895092E0394000C11F4882352F0BB0F65
:1018500040F4BF2B11F460FF04C06F5F7F4F8F4FC8
:101860009F4F089557FD9058440F551F59F05F3F03
:1018700071F04795880F97FB991F61F09F3F79F0B2
:1018800087950895121613061406551FF2CF469534
:10189000F1DF08C0161617061806991FF1CF8695B6
:1018A0007105610508940895E894BB27662777279A
:1018B000CB0197F90895052E97FB1EF400940E9422
:1018C000720C57FD07D00E948D0C07FC03D04EF41C
:1018D0000C94720C50954095309521953F4F4F4F89
:1018E0005F4F089590958095709561957F4F8F4FCC
:1018F0009F4F08950E94AF0CA59F900DB49F900D2F
:10190000A49F800D911D11240895B7FF0C947A0CAB
:101910000E947A0C821B930B0895A1E21A2EAA1B37
:10192000BB1BFD010DC0AA1FBB1FEE1FFF1FA2178F
:10193000B307E407F50720F0A21BB30BE40BF50B8C
:10194000661F771F881F991F1A9469F76095709515
:10195000809590959B01AC01BD01CF010895A29F98
:10196000B001B39FC001A39F700D811D1124911D73
:10197000B29F700D811D1124911D08950E94C50C08
:101980006894B1110C94550C08950E943A0C88F09B
:101990009F5798F0B92F9927B751B0F0E1F0660F33
:1019A000771F881F991F1AF0BA95C9F714C0B13074
:1019B00091F00E94540CB1E008950C94540C672FE0
:1019C000782F8827B85F39F0B93FCCF386957795A3
:1019D0006795B395D9F73EF490958095709561958C
:1019E0007F4F8F4F9F4F0895991B79E004C0991F37
:1019F000961708F0961B881F7A95C9F78095089569
:101A0000EE0FFF1F0590F491E02D09940F931F93A3
:101A1000CF93DF938230910510F482E090E0E09163
:101A20003A03F0913B0320E030E0A0E0B0E03097D3
:101A300019F1408151810281138148175907C8F07B
:101A40008417950769F4109731F012960C9312974A
:101A500013961C9327C000933A0310933B0322C0B4
:101A60002115310519F04217530718F49A01BD01E9
:101A7000EF01DF01F801DBCF21153105F9F0281B5B
:101A8000390B2430310580F48A819B816115710501
:101A900021F0FB019383828304C090933B038093E6
:101AA0003A03FE01329644C0FE01E20FF31F819318
:101AB000919322503109398328833AC02091380309
:101AC00030913903232B41F420910A0130910B010D
:101AD0003093390320933803209108013091090194
:101AE0002115310541F42DB73EB740910C015091BD
:101AF0000D01241B350BE0913803F0913903E217F7
:101B0000F307A0F42E1B3F0B2817390778F0AC0120
:101B10004E5F5F4F2417350748F04E0F5F1F5093FD
:101B20003903409338038193919302C0E0E0F0E0E1
:101B3000CF01DF91CF911F910F910895CF93DF9344
:101B4000009709F481C0FC01329713821282A091A0
:101B50003A03B0913B03109781F420813181820FC9
:101B6000931F20913803309139032817390751F515
:101B7000F0933903E093380367C0ED0120E030E0D3
:101B8000CE17DF0740F44A815B819E014115510564
:101B9000F1F0EA01F5CFD383C28340815181840FF4
:101BA000951FC817D90759F488819981840F951F0B
:101BB0000296918380838A819B81938382832115FE
:101BC000310529F4F0933B03E0933A033DC0E9016A
:101BD000FB83EA8349915991C40FD51FEC17FD0788
:101BE00061F480819181840F951F0296E9019983A8
:101BF0008883828193819B838A83E0E0F0E0129660
:101C00008D919C911397009719F0FD01DC01F7CF9E
:101C10008D919C9111979D012E5F3F4F820F931FD5
:101C200020913803309139032817390769F4309728
:101C300029F410923B0310923A0302C013821282DD
:101C4000B0933903A0933803DF91CF91089581E0D9
:0C1C500090E0F8940C942C0EF894FFCF58
:101C5C000600060000642D6400003C0380000706AB
:101C6C00040500000000DE02B401E2012B03A60211
:101C7C00F1010502000000005B0357030D0A00523E
:101C8C006563696576696E67204D65737361676519
:101C9C00004D65737361676520417661696C6162A3
:101CAC006C65002C0070726F63657373696E6720CE
:101CBC006D65737361676500436F6D6D616E643A3A
:101CCC0000426F78204E756D3A00426F7820697330
:101CDC0020636C6F7365642C207377697463686917
:101CEC006E6720746F207072657265616479004252
:101CFC006F7853746174652069733A00426F782071
:101D0C006E6F7420696E20434C4F5345442073749E
:101D1C006174652C2063616E6E6F742073776974C7
:101D2C00636820746F20505245524541445900510C
:101D3C0075657279004D61726B0044656661756CF6
:101D4C0074004E6F7420726561647900426F782064
:0C1D5C000020697320726561647900004A
:00000001FF
